{
  "contractName": "curtaily",
  "abi": [
    {
      "constant": false,
      "inputs": [
        {
          "internalType": "string",
          "name": "_user",
          "type": "string"
        },
        {
          "internalType": "string",
          "name": "_lurl",
          "type": "string"
        }
      ],
      "name": "Convert_lurl_turl",
      "outputs": [
        {
          "internalType": "bytes3",
          "name": "",
          "type": "bytes3"
        }
      ],
      "payable": false,
      "stateMutability": "nonpayable",
      "type": "function"
    },
    {
      "constant": true,
      "inputs": [
        {
          "internalType": "bytes3",
          "name": "_turl",
          "type": "bytes3"
        }
      ],
      "name": "Correspond_lurl",
      "outputs": [
        {
          "internalType": "string",
          "name": "",
          "type": "string"
        }
      ],
      "payable": false,
      "stateMutability": "view",
      "type": "function"
    },
    {
      "constant": true,
      "inputs": [
        {
          "internalType": "string",
          "name": "_user",
          "type": "string"
        }
      ],
      "name": "get_turl_lurl",
      "outputs": [
        {
          "internalType": "string[]",
          "name": "",
          "type": "string[]"
        },
        {
          "internalType": "bytes3[]",
          "name": "",
          "type": "bytes3[]"
        }
      ],
      "payable": false,
      "stateMutability": "view",
      "type": "function"
    }
  ],
  "bytecode": "0x608060405234801561001057600080fd5b5061101e806100206000396000f3fe608060405234801561001057600080fd5b50600436106100415760003560e01c806304fb96d114610046578063adf26aba14610076578063e1a5f766146100a6575b600080fd5b610060600480360361005b9190810190610a80565b6100d7565b60405161006d9190610dd1565b60405180910390f35b610090600480360361008b9190810190610a16565b6103cb565b60405161009d9190610dec565b60405180910390f35b6100c060048036036100bb9190810190610a3f565b6105d6565b6040516100ce929190610d9a565b60405180910390f35b60008060009050600080905060008090505b60008054905081101561017857856040516020016101079190610d51565b604051602081830303815290604052805190602001206000828154811061012a57fe5b906000526020600020016040516020016101449190610d68565b60405160208183030381529060405280519060200120141561016b57600181019250610178565b80806001019150506100e9565b5060008214156101ca5760008590806001815401808255809150509060018203906000526020600020016000909192909190915090805190602001906101bf929190610908565b505060008054905091505b60008090505b600160006001850381526020019081526020016000208054905081101561028757846040516020016102029190610d51565b6040516020818303038152906040528051906020012060016000600186038152602001908152602001600020828154811061023957fe5b906000526020600020016040516020016102539190610d68565b60405160208183030381529060405280519060200120141561027a57600181019150610287565b80806001019150506101d0565b50600081141561038957600160006001840381526020019081526020016000208490806001815401808255809150509060018203906000526020600020016000909192909190915090805190602001906102e2929190610908565b5050600160006001840381526020019081526020016000208054905090506000600182600a0284606402010190506000816040516020016103239190610d7f565b60405160208183030381529060405280519060200120905060008190508060026000600188038152602001908152602001600020600060018703815260200190815260200160002060006101000a81548162ffffff021916908360e81c02179055505050505b60026000600184038152602001908152602001600020600060018303815260200190815260200160002060009054906101000a900460e81b9250505092915050565b60606000809050600080905060008090505b6000805490508110156104af5760008090505b60016000838152602001908152602001600020805490508110156104a15760026000838152602001908152602001600020600082815260200190815260200160002060009054906101000a900460e81b7cffffffffffffffffffffffffffffffffffffffffffffffffffffffffff1916867cffffffffffffffffffffffffffffffffffffffffffffffffffffffffff19161415610494576001810193506001820192505b80806001019150506103f0565b5080806001019150506103dd565b506000821415806104c1575060008114155b15610596576001600060018303815260200190815260200160002060018303815481106104ea57fe5b906000526020600020018054600181600116156101000203166002900480601f0160208091040260200160405190810160405280929190818152602001828054600181600116156101000203166002900480156105885780601f1061055d57610100808354040283529160200191610588565b820191906000526020600020905b81548152906001019060200180831161056b57829003601f168201915b5050505050925050506105d1565b6040518060400160405280601181526020017f4e6f20537563682055524c204578697374000000000000000000000000000000815250925050505b919050565b606080600080905060008090505b60008054905081101561066f57846040516020016106029190610d51565b604051602081830303815290604052805190602001206000828154811061062557fe5b9060005260206000200160405160200161063f9190610d68565b604051602081830303815290604052805190602001201415610662576001810191505b80806001019150506105e4565b50606060016000600184038152602001908152602001600020805490506040519080825280602002602001820160405280156106bf57816020015b60608152602001906001900390816106aa5790505b50905060008090505b60016000600185038152602001908152602001600020805490508110156107d15760016000600185038152602001908152602001600020818154811061070a57fe5b906000526020600020018054600181600116156101000203166002900480601f0160208091040260200160405190810160405280929190818152602001828054600181600116156101000203166002900480156107a85780601f1061077d576101008083540402835291602001916107a8565b820191906000526020600020905b81548152906001019060200180831161078b57829003601f168201915b50505050508282815181106107b957fe5b602002602001018190525080806001019150506106c8565b506060600160006001850381526020019081526020016000208054905060405190808252806020026020018201604052801561081c5781602001602082028038833980820191505090505b509050600083146108f95760008090505b60016000600186038152602001908152602001600020805490508110156108ea5760026000600186038152602001908152602001600020600082815260200190815260200160002060009054906101000a900460e81b82828151811061088f57fe5b60200260200101907cffffffffffffffffffffffffffffffffffffffffffffffffffffffffff191690817cffffffffffffffffffffffffffffffffffffffffffffffffffffffffff191681525050808060010191505061082d565b50818194509450505050610903565b8181945094505050505b915091565b828054600181600116156101000203166002900490600052602060002090601f016020900481019282601f1061094957805160ff1916838001178555610977565b82800160010185558215610977579182015b8281111561097657825182559160200191906001019061095b565b5b5090506109849190610988565b5090565b6109aa91905b808211156109a657600081600090555060010161098e565b5090565b90565b6000813590506109bc81610fc4565b92915050565b600082601f8301126109d357600080fd5b81356109e66109e182610e3b565b610e0e565b91508082526020830160208301858383011115610a0257600080fd5b610a0d838284610f67565b50505092915050565b600060208284031215610a2857600080fd5b6000610a36848285016109ad565b91505092915050565b600060208284031215610a5157600080fd5b600082013567ffffffffffffffff811115610a6b57600080fd5b610a77848285016109c2565b91505092915050565b60008060408385031215610a9357600080fd5b600083013567ffffffffffffffff811115610aad57600080fd5b610ab9858286016109c2565b925050602083013567ffffffffffffffff811115610ad657600080fd5b610ae2858286016109c2565b9150509250929050565b6000610af88383610beb565b60208301905092915050565b6000610b108383610c73565b905092915050565b6000610b2382610e9c565b610b2d8185610ee2565b9350610b3883610e67565b8060005b83811015610b69578151610b508882610aec565b9750610b5b83610ec8565b925050600181019050610b3c565b5085935050505092915050565b6000610b8182610ea7565b610b8b8185610ef3565b935083602082028501610b9d85610e77565b8060005b85811015610bd95784840389528151610bba8582610b04565b9450610bc583610ed5565b925060208a01995050600181019050610ba1565b50829750879550505050505092915050565b610bf481610f31565b82525050565b610c0381610f31565b82525050565b6000610c1482610ebd565b610c1e8185610f15565b9350610c2e818560208601610f76565b610c3781610fb3565b840191505092915050565b6000610c4d82610ebd565b610c578185610f26565b9350610c67818560208601610f76565b80840191505092915050565b6000610c7e82610eb2565b610c888185610f04565b9350610c98818560208601610f76565b610ca181610fb3565b840191505092915050565b600081546001811660008114610cc95760018114610cee57610d32565b607f6002830416610cda8187610f26565b955060ff1983168652808601935050610d32565b60028204610cfc8187610f26565b9550610d0785610e87565b60005b82811015610d2957815481890152600182019150602081019050610d0a565b82880195505050505b505092915050565b610d4b610d4682610f5d565b610fa9565b82525050565b6000610d5d8284610c42565b915081905092915050565b6000610d748284610cac565b915081905092915050565b6000610d8b8284610d3a565b60208201915081905092915050565b60006040820190508181036000830152610db48185610b76565b90508181036020830152610dc88184610b18565b90509392505050565b6000602082019050610de66000830184610bfa565b92915050565b60006020820190508181036000830152610e068184610c09565b905092915050565b6000604051905081810181811067ffffffffffffffff82111715610e3157600080fd5b8060405250919050565b600067ffffffffffffffff821115610e5257600080fd5b601f19601f8301169050602081019050919050565b6000819050602082019050919050565b6000819050602082019050919050565b60008190508160005260206000209050919050565b600081519050919050565b600081519050919050565b600081519050919050565b600081519050919050565b6000602082019050919050565b6000602082019050919050565b600082825260208201905092915050565b600082825260208201905092915050565b600082825260208201905092915050565b600082825260208201905092915050565b600081905092915050565b60007fffffff000000000000000000000000000000000000000000000000000000000082169050919050565b6000819050919050565b82818337600083830152505050565b60005b83811015610f94578082015181840152602081019050610f79565b83811115610fa3576000848401525b50505050565b6000819050919050565b6000601f19601f8301169050919050565b610fcd81610f31565b8114610fd857600080fd5b5056fea365627a7a723158205b7f8bf3369e7d77930529b8ede0e5c4310dc1a0dd67e497b0240b8bd35f59866c6578706572696d656e74616cf564736f6c63430005100040",
  "source": "// SPDX-License-Identifier: MIT\npragma solidity >=0.4.21 <0.7.0;\npragma experimental ABIEncoderV2;\ncontract curtaily {\n    string[] users;\n    mapping(uint=>string[]) c_lurl;\n    mapping(uint=>mapping(uint => bytes3) ) c_turl;\n     function Convert_lurl_turl(string memory _user,string memory _lurl) public returns(bytes3){\n        uint user_exist_index = 0;\n        uint lurl_exist_index = 0;\n\n        for(uint i = 0;i < users.length;i++){\n            if(keccak256(abi.encodePacked(users[i])) == keccak256(abi.encodePacked(_user))){\n                user_exist_index = i+1;\n                break;\n            }\n        }\n        if(user_exist_index == 0){\n            users.push(_user);\n            user_exist_index = users.length;\n        }\n        for(uint i = 0 ;i < c_lurl[user_exist_index-1].length;i++){\n            if(keccak256(abi.encodePacked(c_lurl[user_exist_index-1][i])) == keccak256(abi.encodePacked(_lurl))){\n                lurl_exist_index = i+1;\n                break;\n            }\n        }\n        if(lurl_exist_index == 0){\n            c_lurl[user_exist_index-1].push(_lurl);\n            lurl_exist_index = c_lurl[user_exist_index-1].length;\n              uint number = 100*user_exist_index + 10*lurl_exist_index + 1;\n                bytes32 turl_code = keccak256(abi.encodePacked(number));\n                bytes3 turl_url = bytes3(turl_code);\n                c_turl[user_exist_index-1][lurl_exist_index-1] = turl_url;\n        }\n        return c_turl[user_exist_index-1][lurl_exist_index-1];\n    }\n    function Correspond_lurl(bytes3 _turl) public view returns(string memory){\n        uint lurl_exist_index = 0;\n        uint user_exist_index = 0;\n        for(uint i = 0 ;i < users.length ; i++){\n            for(uint j = 0;j<c_lurl[i].length;j++){\n                    if(_turl == c_turl[i][j]){\n                        lurl_exist_index = j + 1;\n                        user_exist_index = i + 1;\n                    }\n            }\n        }\n        if(lurl_exist_index != 0 || user_exist_index != 0 ){\n            return c_lurl[user_exist_index-1][lurl_exist_index-1];\n        }else{\n            return \"No Such URL Exist\";\n        }\n    }\n    function get_turl_lurl(string memory _user) public view returns(string[] memory,bytes3[] memory){\n        uint user_exist_index = 0;\n        for(uint i = 0;i<users.length;i++){\n            if(keccak256(abi.encodePacked(users[i])) == keccak256(abi.encodePacked(_user))){\n                user_exist_index = i+1;\n            }\n        }\n         string[] memory userlist = new string[](c_lurl[user_exist_index-1].length);\n         for(uint i = 0;i<c_lurl[user_exist_index-1].length;i++){\n                userlist[i] = c_lurl[user_exist_index-1][i];\n        }\n        bytes3[] memory trl_list = new bytes3[](c_lurl[user_exist_index-1].length);\n         if(user_exist_index != 0 ){\n             for(uint i = 0;i<c_lurl[user_exist_index-1].length;i++){\n                 trl_list[i] = c_turl[user_exist_index-1][i];\n             }\n            return (userlist,trl_list);\n        }else{\n            return (userlist,trl_list);\n        }\n    }\n\n}",
  "sourcePath": "/home/shivam/Downloads/Curtaily/Blockchain/contracts/Curtaily.sol",
  "compiler": {
    "name": "solc",
    "version": "0.5.16+commit.9c3226ce.Emscripten.clang"
  },
  "schemaVersion": "3.2.3",
  "updatedAt": "2020-07-30T16:45:18.420Z",
  "networkType": "ethereum",
  "devdoc": {
    "methods": {}
  },
  "userdoc": {
    "methods": {}
  }
}